{
  "_format": "hh-sol-artifact-1",
  "contractName": "WavePortal",
  "sourceName": "contracts/WavePortal.sol",
  "abi": [
    {
      "inputs": [],
      "stateMutability": "payable",
      "type": "constructor"
    },
    {
      "anonymous": false,
      "inputs": [
        {
          "indexed": true,
          "internalType": "address",
          "name": "from",
          "type": "address"
        },
        {
          "indexed": false,
          "internalType": "uint256",
          "name": "timestamp",
          "type": "uint256"
        },
        {
          "indexed": false,
          "internalType": "string",
          "name": "message",
          "type": "string"
        }
      ],
      "name": "NewWave",
      "type": "event"
    },
    {
      "inputs": [],
      "name": "getTotalWaves",
      "outputs": [
        {
          "internalType": "uint256",
          "name": "",
          "type": "uint256"
        }
      ],
      "stateMutability": "view",
      "type": "function"
    },
    {
      "inputs": [
        {
          "internalType": "address",
          "name": "user",
          "type": "address"
        }
      ],
      "name": "getUserWaves",
      "outputs": [
        {
          "internalType": "uint256",
          "name": "",
          "type": "uint256"
        }
      ],
      "stateMutability": "view",
      "type": "function"
    },
    {
      "inputs": [],
      "name": "getWaves",
      "outputs": [
        {
          "components": [
            {
              "internalType": "address",
              "name": "waver",
              "type": "address"
            },
            {
              "internalType": "uint256",
              "name": "timestamp",
              "type": "uint256"
            },
            {
              "internalType": "string",
              "name": "message",
              "type": "string"
            }
          ],
          "internalType": "struct WavePortal.Wave[]",
          "name": "",
          "type": "tuple[]"
        }
      ],
      "stateMutability": "view",
      "type": "function"
    },
    {
      "inputs": [
        {
          "internalType": "string",
          "name": "_message",
          "type": "string"
        }
      ],
      "name": "wave",
      "outputs": [],
      "stateMutability": "nonpayable",
      "type": "function"
    }
  ],
  "bytecode": "0x60806040526200003360405180606001604052806026815260200162001533602691396200003960201b620007531760201c565b620001cd565b620000d98160405160240162000050919062000146565b6040516020818303038152906040527f41304fac000000000000000000000000000000000000000000000000000000007bffffffffffffffffffffffffffffffffffffffffffffffffffffffff19166020820180517bffffffffffffffffffffffffffffffffffffffffffffffffffffffff8381831617835250505050620000dc60201b60201c565b50565b60008151905060006a636f6e736f6c652e6c6f679050602083016000808483855afa5050505050565b600062000112826200016a565b6200011e818562000175565b93506200013081856020860162000186565b6200013b81620001bc565b840191505092915050565b6000602082019050818103600083015262000162818462000105565b905092915050565b600081519050919050565b600082825260208201905092915050565b60005b83811015620001a657808201518184015260208101905062000189565b83811115620001b6576000848401525b50505050565b6000601f19601f8301169050919050565b61135680620001dd6000396000f3fe608060405234801561001057600080fd5b506004361061004c5760003560e01c8063449d46c0146100515780636cdca0ea1461006d5780639a2cdc081461009d578063a9d42f7e146100bb575b600080fd5b61006b60048036038101906100669190610b38565b6100d9565b005b61008760048036038101906100829190610b0f565b6104ef565b6040516100949190610ef8565b60405180910390f35b6100a56105b7565b6040516100b29190610ef8565b60405180910390f35b6100c3610602565b6040516100d09190610da1565b60405180910390f35b42610384600260003373ffffffffffffffffffffffffffffffffffffffff1673ffffffffffffffffffffffffffffffffffffffff16815260200190815260200160002054610127919061100a565b10610167576040517f08c379a000000000000000000000000000000000000000000000000000000000815260040161015e90610eb8565b60405180910390fd5b42600260003373ffffffffffffffffffffffffffffffffffffffff1673ffffffffffffffffffffffffffffffffffffffff1681526020019081526020016000208190555060016000808282546101bd919061100a565b925050819055506102046040518060400160405280600a81526020017f257320736179732025730000000000000000000000000000000000000000000081525033836107ec565b60018060003373ffffffffffffffffffffffffffffffffffffffff1673ffffffffffffffffffffffffffffffffffffffff1681526020019081526020016000206000828254610253919061100a565b92505081905550600460405180606001604052803373ffffffffffffffffffffffffffffffffffffffff16815260200142815260200183815250908060018154018082558091505060019003906000526020600020906003020160009091909190915060008201518160000160006101000a81548173ffffffffffffffffffffffffffffffffffffffff021916908373ffffffffffffffffffffffffffffffffffffffff1602179055506020820151816001015560408201518160020190805190602001906103239291906109ef565b505050600060646003544244610339919061100a565b610343919061100a565b61034d9190611141565b905061038e6040518060400160405280601681526020017f52616e646f6d20232067656e6572617465643a202573000000000000000000008152508261088b565b80600381905550603281101561049b576000655af3107a40009050478111156103ec576040517f08c379a00000000000000000000000000000000000000000000000000000000081526004016103e390610e98565b60405180910390fd5b60003373ffffffffffffffffffffffffffffffffffffffff168260405161041290610d8c565b60006040518083038185875af1925050503d806000811461044f576040519150601f19603f3d011682016040523d82523d6000602084013e610454565b606091505b5050905080610498576040517f08c379a000000000000000000000000000000000000000000000000000000000815260040161048f90610ed8565b60405180910390fd5b50505b3373ffffffffffffffffffffffffffffffffffffffff167f5f7e16dc676677766a70e9c5628aa6c54ddb8b6e5188e2ae1e1f17f1ffbea71642846040516104e3929190610f13565b60405180910390a25050565b60006105706040518060400160405280600f81526020017f257320686173202573207761766573000000000000000000000000000000000081525083600160008673ffffffffffffffffffffffffffffffffffffffff1673ffffffffffffffffffffffffffffffffffffffff16815260200190815260200160002054610927565b600160008373ffffffffffffffffffffffffffffffffffffffff1673ffffffffffffffffffffffffffffffffffffffff168152602001908152602001600020549050919050565b60006105fa6040518060400160405280600f81526020017f546f74616c2077617665733a202573000000000000000000000000000000000081525060005461088b565b600054905090565b60606004805480602002602001604051908101604052809291908181526020016000905b8282101561074a57838290600052602060002090600302016040518060600160405290816000820160009054906101000a900473ffffffffffffffffffffffffffffffffffffffff1673ffffffffffffffffffffffffffffffffffffffff1673ffffffffffffffffffffffffffffffffffffffff168152602001600182015481526020016002820180546106b9906110de565b80601f01602080910402602001604051908101604052809291908181526020018280546106e5906110de565b80156107325780601f1061070757610100808354040283529160200191610732565b820191906000526020600020905b81548152906001019060200180831161071557829003601f168201915b50505050508152505081526020019060010190610626565b50505050905090565b6107e9816040516024016107679190610dc3565b6040516020818303038152906040527f41304fac000000000000000000000000000000000000000000000000000000007bffffffffffffffffffffffffffffffffffffffffffffffffffffffff19166020820180517bffffffffffffffffffffffffffffffffffffffffffffffffffffffff83818316178352505050506109c6565b50565b61088683838360405160240161080493929190610de5565b6040516020818303038152906040527fe0e9ad4f000000000000000000000000000000000000000000000000000000007bffffffffffffffffffffffffffffffffffffffffffffffffffffffff19166020820180517bffffffffffffffffffffffffffffffffffffffffffffffffffffffff83818316178352505050506109c6565b505050565b61092382826040516024016108a1929190610e68565b6040516020818303038152906040527f9710a9d0000000000000000000000000000000000000000000000000000000007bffffffffffffffffffffffffffffffffffffffffffffffffffffffff19166020820180517bffffffffffffffffffffffffffffffffffffffffffffffffffffffff83818316178352505050506109c6565b5050565b6109c183838360405160240161093f93929190610e2a565b6040516020818303038152906040527f07c81217000000000000000000000000000000000000000000000000000000007bffffffffffffffffffffffffffffffffffffffffffffffffffffffff19166020820180517bffffffffffffffffffffffffffffffffffffffffffffffffffffffff83818316178352505050506109c6565b505050565b60008151905060006a636f6e736f6c652e6c6f679050602083016000808483855afa5050505050565b8280546109fb906110de565b90600052602060002090601f016020900481019282610a1d5760008555610a64565b82601f10610a3657805160ff1916838001178555610a64565b82800160010185558215610a64579182015b82811115610a63578251825591602001919060010190610a48565b5b509050610a719190610a75565b5090565b5b80821115610a8e576000816000905550600101610a76565b5090565b6000610aa5610aa084610f68565b610f43565b905082815260208101848484011115610abd57600080fd5b610ac884828561109c565b509392505050565b600081359050610adf81611309565b92915050565b600082601f830112610af657600080fd5b8135610b06848260208601610a92565b91505092915050565b600060208284031215610b2157600080fd5b6000610b2f84828501610ad0565b91505092915050565b600060208284031215610b4a57600080fd5b600082013567ffffffffffffffff811115610b6457600080fd5b610b7084828501610ae5565b91505092915050565b6000610b858383610d1e565b905092915050565b610b9681611060565b82525050565b610ba581611060565b82525050565b6000610bb682610fa9565b610bc08185610fcc565b935083602082028501610bd285610f99565b8060005b85811015610c0e5784840389528151610bef8582610b79565b9450610bfa83610fbf565b925060208a01995050600181019050610bd6565b50829750879550505050505092915050565b6000610c2b82610fb4565b610c358185610fe8565b9350610c458185602086016110ab565b610c4e8161122e565b840191505092915050565b6000610c6482610fb4565b610c6e8185610ff9565b9350610c7e8185602086016110ab565b610c878161122e565b840191505092915050565b6000610c9f603483610ff9565b9150610caa8261123f565b604082019050919050565b6000610cc2601b83610ff9565b9150610ccd8261128e565b602082019050919050565b6000610ce5602783610ff9565b9150610cf0826112b7565b604082019050919050565b6000610d08600083610fdd565b9150610d1382611306565b600082019050919050565b6000606083016000830151610d366000860182610b8d565b506020830151610d496020860182610d6e565b5060408301518482036040860152610d618282610c20565b9150508091505092915050565b610d7781611092565b82525050565b610d8681611092565b82525050565b6000610d9782610cfb565b9150819050919050565b60006020820190508181036000830152610dbb8184610bab565b905092915050565b60006020820190508181036000830152610ddd8184610c59565b905092915050565b60006060820190508181036000830152610dff8186610c59565b9050610e0e6020830185610b9c565b8181036040830152610e208184610c59565b9050949350505050565b60006060820190508181036000830152610e448186610c59565b9050610e536020830185610b9c565b610e606040830184610d7d565b949350505050565b60006040820190508181036000830152610e828185610c59565b9050610e916020830184610d7d565b9392505050565b60006020820190508181036000830152610eb181610c92565b9050919050565b60006020820190508181036000830152610ed181610cb5565b9050919050565b60006020820190508181036000830152610ef181610cd8565b9050919050565b6000602082019050610f0d6000830184610d7d565b92915050565b6000604082019050610f286000830185610d7d565b8181036020830152610f3a8184610c59565b90509392505050565b6000610f4d610f5e565b9050610f598282611110565b919050565b6000604051905090565b600067ffffffffffffffff821115610f8357610f826111ff565b5b610f8c8261122e565b9050602081019050919050565b6000819050602082019050919050565b600081519050919050565b600081519050919050565b6000602082019050919050565b600082825260208201905092915050565b600081905092915050565b600082825260208201905092915050565b600082825260208201905092915050565b600061101582611092565b915061102083611092565b9250827fffffffffffffffffffffffffffffffffffffffffffffffffffffffffffffffff0382111561105557611054611172565b5b828201905092915050565b600061106b82611072565b9050919050565b600073ffffffffffffffffffffffffffffffffffffffff82169050919050565b6000819050919050565b82818337600083830152505050565b60005b838110156110c95780820151818401526020810190506110ae565b838111156110d8576000848401525b50505050565b600060028204905060018216806110f657607f821691505b6020821081141561110a576111096111d0565b5b50919050565b6111198261122e565b810181811067ffffffffffffffff82111715611138576111376111ff565b5b80604052505050565b600061114c82611092565b915061115783611092565b925082611167576111666111a1565b5b828206905092915050565b7f4e487b7100000000000000000000000000000000000000000000000000000000600052601160045260246000fd5b7f4e487b7100000000000000000000000000000000000000000000000000000000600052601260045260246000fd5b7f4e487b7100000000000000000000000000000000000000000000000000000000600052602260045260246000fd5b7f4e487b7100000000000000000000000000000000000000000000000000000000600052604160045260246000fd5b6000601f19601f8301169050919050565b7f547279696e6720746f207769746864726177206d6f7265206d6f6e657920746860008201527f616e2074686520636f6e7472616374206861732e000000000000000000000000602082015250565b7f596f752073686f756c642077616974203135206d696e757465732e0000000000600082015250565b7f4661696c656420746f207769746864726177206d6f6e65792066726f6d20636f60008201527f6e74726163742e00000000000000000000000000000000000000000000000000602082015250565b50565b61131281611060565b811461131d57600080fd5b5056fea264697066735822122072ee8d813e020ed5ee07acc9ee05cd29e31422d7a81b4fae4189c760a967af7a64736f6c6343000804003348692c2074686973206973206d6521204920616d206120536d61727420436f6e747261637421",
  "linkReferences": {},
  "deployedLinkReferences": {}
}